:020000040800F2
:100000000804002049010008BF110008C10E0008C3
:10001000BD110008CD010008951200080000000085
:100020000000000000000000000000005B0100086C
:10003000CF010008000000005F010008E111000886
:100040006301000863010008630100086301000800
:1000500063010008630100086301000863010008F0
:1000600063010008630100086301000863010008E0
:1000700063010008630100086301000863010008D0
:1000800063010008630100086301000863010008C0
:1000900063010008630100086301000863010008B0
:1000A00063010008630100086301000863010008A0
:1000B0006301000863010008630100086301000890
:1000C0006301000863010008630100086301000880
:1000D0006301000863010008630100086301000870
:1000E0006301000863010008630100086301000860
:1000F0006301000863010008630100086301000850
:10010000630100086301000863010008630100083F
:10011000630100086301000863010008630100082F
:10012000630100086301000863010008630100081F
:10013000DFF810D000F01AF800480047C913000893
:10014000AFF30080080400200648804706480047B7
:10015000FEE7FEE7FEE7FEE7FEE7FEE7FEE7FEE777
:10016000FEE7FEE74D12000831010008064C074D7E
:1001700006E0E06840F0010394E807009847103477
:10018000AC42F6D3FFF7D8FFDC6E0208FC6E020823
:1001900070B50D46044600EB02211E46442000F0D7
:1001A0001BFF2946452000F017FF3146462000F08E
:1001B00013FF21464E2000F00FFF29464F2000F08C
:1001C0000BFFBDE87040222000F07CBEFEE7FEE79A
:1001D00031B500F003F9044600F000F90099001B66
:1001E0008842F9D338BD00002DE9F84FDFF8B8A1F7
:1001F00000220AF1040B144601274FF00F090BF1FE
:10020000040E00BF0B6807FA04F52B40AB4274D113
:10021000DFF898C14E68A6EB0C0866452BD00DDCC4
:10022000032E34D005DC36B3012E19D0022E2FD187
:100230001BE0112E16D0122E2AD119E0B8F5881F16
:1002400019D006DCB8F5803F15D0B8F5801F1FD156
:1002500011E0B8F5001F0ED0B8F5041F18D10AE060
:10026000CA6815E0CA68121D12E0CA6808320FE0B9
:10027000CA680C320CE08A682AB1012A4FF00802E1
:1002800003D0456104E0042202E0056100E00022A1
:10029000FF2B01D8064601E000F104064FEA840571
:1002A00001D9A5F12005D6F800C009FA05F82CEA15
:1002B000080C02FA05F54CEA050CC6F800C04D68BA
:1002C000ED006AD53A4DAE6946F00106AE61AD6902
:1002D00024F0030605F001050095364D06EB050CEC
:1002E000DCF80850A6074FEA167809FA08F6B54375
:1002F000314EB04202D100261AE04EE02F4EB042FD
:1003000001D1012614E02E4EB04201D102260FE0A9
:100310002C4EB04201D103260AE02B4EB04201D14F
:10032000042605E0294EB04201D1052600E006264C
:1003300006FA08F62E43CCF808604D68DAF800603B
:10034000ED03554601D51E4300E09E432E604D68E7
:10035000AD0305D5DBF800601E43CBF8006004E078
:10036000DBF800509D43CBF800504D68DEF800608C
:10037000ED02754601D51E4300E09E432E604D6898
:10038000AD0205D5084D0C352E681E432E6004E0E5
:10039000054E0C3635689D433560641C102CFFF407
:1003A00031AFBDE8F88F00000004014000001110DB
:1003B000001002400000014000080140000C014014
:1003C000001001400014014000180140001C0140D1
:1003D0000AB1016170470904FBE7000001480068A9
:1003E000704700000400002002480168491C0160B9
:1003F0007047000004000020074810B5016841F074
:1004000010010160032000F069F8002000F006F8F8
:1004100000F016F8002010BD0020024010B5044680
:1004200000F0B2F94FF47A71B0FBF1F000F030FD5A
:1004300000222146501E00F031F8002010BD0000BF
:10044000154808B5816941F001018161806900F0BA
:1004500001000090032000F041F8002211466FF0E7
:100460000B0000F01BF8002211466FF00A0000F0AC
:1004700015F8002211466FF0090000F00FF8002275
:100480001146101F00F00AF80022BDE8084011468E
:10049000501E00F003B8000000100240F0B40E4BF4
:1004A0001B680C46C3F30223C3F10705042D00D9D2
:1004B0000425191D072901D2002300E0DB1E0126B7
:1004C00006FA05F1491E214099409E40761E1640CD
:1004D0003143F0BC00F074BE0CED00E0064900F0C2
:1004E000070208684FF6FF03184040EA0220034A5B
:1004F00010430860704700000CED00E00000FA05B2
:100500002DE9F047DFF8789205460E46D9F800004D
:10051000022300F00707012041044206994C41F2F2
:100520008838B74271D2D9F800C02CF0070C4CEAD9
:10053000060CC9F800C0D9F8007007F00707B742E9
:100540006FD12E78B60705D56668AF6826F0F0063D
:100550003E4366602E78F60756D06E68012E0BD0AB
:10056000022E1ED093FAA3F1B1FA81F141F02001DD
:10057000490924D0216823E091FAA1F2B2FA82F26B
:1005800042F02002520901D0226800E0626A91FA2A
:10059000A1F1B1FA81F101F01F018840024240D07F
:1005A00017E092FAA2F1B1FA81F141F02001490974
:1005B00001D0216800E0616A92FAA2F202E0616A69
:1005C00093FAA3F2B2FA82F202F01F0290400142C3
:1005D00027D0606820F0030030436060FFF7FEFE24
:1005E00006466868012809D00228474613D01EE055
:1005F000FFF7F4FE801BB84201D992E047466068DD
:10060000C0F381000128F3D1A1E015E0FFF7E6FE79
:10061000801BB84273D86068C0F381000228F5D10E
:1006200095E092E0FFF7DAFE801BB84279D8606867
:1006300010F00C0FF6D18AE02F78BF0707D5676856
:10064000D5F808C027F0F00747EA0C0767602F7855
:10065000FF076DD06F68012F0BD0022F1ED093FAC9
:10066000A3F1B1FA81F141F02001490924D02168B8
:1006700023E091FAA1F2B2FA82F242F0200252098A
:1006800001D0226800E0626A91FAA1F1B1FA81F129
:1006900001F01F018840024257D017E092FAA2F100
:1006A000B1FA81F141F02001490901D0216800E04F
:1006B000616A92FAA2F202E0616A93FAA3F2B2FAD4
:1006C00082F202F01F02904001423ED0606820F0AA
:1006D000030038436060FFF781FE07466868012821
:1006E00007D0022811D01FE0FFF778FEC11B41455B
:1006F00017D86068C0F381000128F5D118E010E038
:10070000FFF76CFEC11B41450BD86068C0F3810048
:100710000228F5D10CE000BFFFF760FEC11B414588
:1007200002D90320BDE8F087606810F00C0FF3D108
:10073000D9F8001021F007013143C9F80010D9F8A9
:10074000000000F00700B04201D00120EAE728785D
:10075000400705D56068E96820F4E0600843606000
:100760002878000706D56068296920F4605040EABF
:10077000C10060600020FFF751FE0020D2E70000BA
:10078000002002400010024000B500F017F80849B0
:100790004968F02292FAA2F201F0F001B2FA82F274
:1007A000D140044A515CC8400349086000BD0000C4
:1007B00000100240CC1600080000002010B519A35C
:1007C00085B00FCB8DE80F001AA01B4B006804907A
:1007D0005A681A4802F00C0104291DD008291BD1BF
:1007E0004FF4701494FAA4F402F47011B4FA84F47F
:1007F000E140D2031DF8011010D55A684FF40033C0
:1008000093FAA3F302F40032B3FA83F3DA4004ABB1
:100810009A5CB0FBF2F0484305B010BD084848436D
:10082000FAE7000002030405060708090A0B0C0D8D
:100830000E0F1010010200000010024000127A009A
:1008400000093D002DE9F84F05460078FA4EC00733
:100850004FF0010425D070686704C0F381000128BF
:1008600007D07068C0F3810002281BD17068C003F4
:1008700018D597FAA7F0B0FA80F040F020004009B0
:1008800001D0306800E0706A97FAA7F1B1FA81F1FF
:1008900001F01F0104FA01F1084202D06868002843
:1008A00076D081E0306820F480303060306820F409
:1008B00080203060FFF792FD804605E0FFF78EFD57
:1008C000A0EB080064287CD897FAA7F0B0FA80F073
:1008D00040F02000400901D0306800E0706A97FACB
:1008E000A7F1B1FA81F101F01F0104FA01F1084208
:1008F000E4D16868B0F5803F0BD010B1B0F5A02FFF
:1009000011D0306820F480303060306820F48020CE
:1009100002E0306840F480303060686820B3FFF750
:100920005DFD80460AE0306840F480203060F0E7EA
:10093000FFF754FDA0EB08006428C4D897FAA7F08D
:10094000B0FA80F040F02000400901D0306800E0AB
:10095000706A97FAA7F1B1FA81F101F01F0104FA68
:1009600001F10842E4D01FE0FFF738FD804605E0C2
:10097000FFF734FDA0EB08006428A4D897FAA7F08D
:10098000B0FA80F040F02000400902D0306801E069
:10099000B7E0706A97FAA7F1B1FA81F101F01F018F
:1009A00004FA01F10842E3D12878DFF89082800749
:1009B0004FF000094FF002075AD5706810F00C0F85
:1009C00000E07AE14FF0F80B07D07068C0F38100C7
:1009D00002281BD17068C00318D497FAA7F0B0FAA8
:1009E00080F040F02000400901D0306800E0706ADB
:1009F00097FAA7F1B1FA81F101F01F0104FA01F1B0
:100A000008422AD0286901287BD126E0286980B3D2
:100A100094FAA4F0B0FA80F048F82040FFF7DEFC2A
:100A2000824605E0FFF7DAFCA0EB0A00022884D832
:100A300097FAA7F0B0FA80F040F02000400901D00A
:100A4000306800E0706A97FAA7F1B1FA81F101F01D
:100A50001F0104FA01F10842E4D030689BFAABF2BE
:100A60006969B2FA82F220F0F800914008433060E0
:100A700025E0FFE794FAA4F1B1FA81F148F821905A
:100A8000FFF7ACFC824605E0FFF7A8FCA0EB0A00EC
:100A90000228CCD897FAA7F0B0FA80F040F02000F6
:100AA000400901D0306800E0706A97FAA7F1B1FA06
:100AB00081F101F01F0104FA01F10842E4D1287824
:100AC00000076ED5A869B8B394FAA4F0B0FA80F024
:100AD00008EB8000C0F88044FFF780FC824605E008
:100AE000FFF77CFCA0EB0A000228A0D897FAA7F039
:100AF000B0FA80F040F06000B4EB501F02D13068D3
:100B00000CE096E197FAA7F0B0FA80F040F06000B0
:100B1000B7EB501F01D1306A00E0706A97FAA7F175
:100B2000B1FA81F101F01F0104FA01F21042D7D0AD
:100B30000120FFF74DFB34E0FFE794FAA4F1B1FA8E
:100B400081F108EB8101C1F88094FFF747FC8246F0
:100B500006E000BFFFF742FCA0EB0A00022898D88D
:100B600097FAA7F0B0FA80F040F06000B4EB501FA5
:100B700001D130680BE097FAA7F0B0FA80F040F0AE
:100B80006000B7EB501F01D1306A00E0706A97FA3D
:100B9000A7F1B1FA81F101F01F0104FA01F210424C
:100BA000D8D12878400770D5F06940F08050F061C6
:100BB000F069DFF88CB000F080500090DBF8001096
:100BC00041F48071CBF80010FFF708FC824605E085
:100BD000FFF704FCA0EB0A0064286ED8DBF80000E5
:100BE000C005F5D5306A20F001003062306A20F08F
:100BF00004003062FFF7F2FB834641F2883A05E0D9
:100C0000FFF7ECFBA0EB0B01514556D897FAA7F084
:100C1000B0FA80F040F04000B4EB501F01D13068D2
:100C200011E097FAA7F0B0FA80F040F04000B7EB7F
:100C3000501F07D1306A06E0001002400000424217
:100C400000700040706A97FAA7F1B1FA81F101F0E3
:100C50001F0104FA01F10842D2D1E86801280AD044
:100C600008B1052812D0306A20F001003062306AE5
:100C700020F0040002E0306A40F001003062E868D1
:100C800098B3FFF7ABFB83460CE05AE0306A40F0C4
:100C900004003062EFE700BFFFF7A0FBA0EB0B0101
:100CA00051450AD897FAA7F0B0FA80F040F040001A
:100CB000B4EB501F02D130680CE09DE097FAA7F02A
:100CC000B0FA80F040F04000B7EB501F01D1306A1D
:100CD00000E0706A97FAA7F1B1FA81F101F01F0202
:100CE00004FA02F10842D7D02BE0FFE7FFF776FBCA
:100CF000834605E0FFF772FBA0EB0B0151457BD863
:100D000097FAA7F0B0FA80F040F04000B4EB501F23
:100D100001D130680BE097FAA7F0B0FA80F040F00C
:100D20004000B7EB501F01D1306A00E0706A97FABB
:100D3000A7F1B1FA81F101F01F0204FA02F10842B1
:100D4000D8D1E86980B37168C1F38101022970D0FC
:100D50004FF080714F000228484609D091FAA1F166
:100D6000B1FA81F148F82100FFF738FB054669E048
:100D7000894691FAA1F1B1FA81F1C24648F8210001
:100D8000FFF72CFB804605E0FFF728FBA0EB0800EF
:100D9000022854D897FAA7F0B0FA80F040F020006B
:100DA000400902D0306801E061E0706A97FAA7F16B
:100DB000B1FA81F101F01F0104FA01F10842E3D117
:100DC000286AB0F5803F05D17068A96820F400302A
:100DD00008437060D5E908010843716821F4741173
:100DE0000843706099FAA9F0B0FA80F04AF8204000
:100DF000FFF7F4FA054606E021E000BFFFF7EEFA40
:100E0000401B02281BD897FAA7F0B0FA80F040F0F8
:100E10002000400901D0306800E0706A97FAA7F11D
:100E2000B1FA81F101F01F0104FA01F10842E5D0A5
:100E30001DE01EE0FFF7D2FA401B022802D9032072
:100E4000BDE8F88F97FAA7F0B0FA80F040F02000E4
:100E5000400901D0306800E0706A97FAA7F1B1FA52
:100E600081F101F01F0104FA01F10842E2D10020F2
:100E7000E6E70120E4E74FF0E0210428086903D009
:100E800020F004000861704740F00400FAE7704762
:100E900010B5401EB0F1807F01D3012010BD4FF08E
:100EA000E02460610F21601700F08AF90020A06142
:100EB00007202061002010BD10B5FFF7E8FF10BD2E
:100EC000FEE700002DE9F041404D044600224FF4BA
:100ED00000512846FFF77CFA3D4E00224021304663
:100EE000FFF776FA3B4F04F0010201213846FFF785
:100EF0006FFAC4F3400202213846FFF769FAC4F3DF
:100F0000800204213846FFF763FAC4F3C0020821C7
:100F10003846FFF75DFAC4F3001210213846FFF798
:100F200057FAC4F3401220213846FFF751FAC4F3B0
:100F3000801240213846FFF74BFAC4F3C0128021DB
:100F40003846FFF745FAC4F3002210213046FFF778
:100F50003FFAC4F3402220213046FFF739FAC4F3A8
:100F6000802201212846FFF733FAC4F3C022022170
:100F70002846FFF72DFAC4F3003204212846FFF774
:100F800027FAC4F3403229152846FFF721FAC4F3A3
:100F90008032E9142846FFF71BFAC4F3C032A914C3
:100FA0002846FFF715FA4FF48044002221462846D0
:100FB000FFF70EFA012221462846FFF709FA3046CC
:100FC000BDE8F04101224021FFF702BA000C0140C8
:100FD000001001400008014010B50C46FFF772FFF9
:100FE0002046BDE8104000F001B800002DE9F041B6
:100FF000404D0446012251032846FFF7E9F93E4ED1
:10100000002240213046FFF7E3F93C4F04F0010293
:1010100001213846FFF7DCF9C4F3400202213846CB
:10102000FFF7D6F9C4F3800204213846FFF7D0F960
:10103000C4F3C00208213846FFF7CAF9C4F300120E
:1010400010213846FFF7C4F9C4F340122021384676
:10105000FFF7BEF9C4F3801240213846FFF7B8F914
:10106000C4F3C01280213846FFF7B2F9C4F300225E
:1010700010213046FFF7ACF9C4F34022202130465E
:10108000FFF7A6F9C4F3802201212846FFF7A0F953
:10109000C4F3C02202212846FFF79AF9C4F30032B4
:1010A00004212846FFF794F9C4F340322915284655
:1010B000FFF78EF9C4F38032E9142846FFF788F968
:1010C000C4F3C032A9142846FFF782F94FF48044D4
:1010D000002221462846FFF77BF9012221462846B7
:1010E000FFF776F93046BDE8F04101224021FFF7D5
:1010F0006FB90000000C01400010014000080140E1
:101100002DE9F043294885B0816941F020018161D2
:10111000816901F020010491816941F0040181613C
:10112000816901F004010491816941F0100181613C
:10113000816901F010010491816941F00801816128
:1011400080691B4F00F0080004900022FF21384600
:10115000FFF73EF9DFF85C800022F0214046FFF700
:1011600037F9DFF854904FF60746002231464846DB
:10117000FFF72EF9FF200124CDE90004022569467E
:1011800003953846FFF730F8F020CDE900046946B2
:1011900003954046FFF728F8CDE9006469464846C4
:1011A0000395FFF721F805B0BDE8F0830010024079
:1011B0000008014000100140000C0140FEE77047AC
:1011C0000907090E002806DA00F00F0000F1E02000
:1011D00080F8141D704700F1E02080F8001470477B
:1011E00010B5FFF701F9BDE81040FFF765BE30B557
:1011F0008FB00120009000040024CDE901040225F5
:10120000CDE907504FF4E01009906846FFF71AFB4C
:101210000F20CDE90A056802CDE90C4002210AA899
:101220000E94FFF76DF9FFF7AFFA4FF47A71B0FB48
:10123000F1F0FFF72DFE0420FFF71DFE00221146FE
:10124000501EFFF72BF90FB030BD00000D480168AC
:1012500041F00101016041680B4A114041600168A1
:101260000A4A11400160016821F48021016041684F
:1012700021F4FE0141604FF41F0181600449C00365
:1012800008607047001002400000FFF8FFFFF6FE04
:1012900008ED00E0FEE702E008C8121F08C1002ABE
:1012A000FAD170477047002001E001C1121F002AE7
:1012B000FBD170472DE9F041404E0C460546012216
:1012C00051033046FFF784F8DFF8F4800022402114
:1012D0004046FFF77DF83B4F04F0010201213846FC
:1012E000FFF776F8C4F3400202213846FFF770F8A2
:1012F000C4F3800204213846FFF76AF8C4F3C00241
:1013000008213846FFF764F8C4F30012102138466C
:10131000FFF75EF8C4F3401220213846FFF758F873
:10132000C4F3801240213846FFF752F8E2098021C9
:101330003846FFF74DF805F0010210214046FFF74F
:1013400047F8C5F3400220214046FFF741F8C5F3B6
:10135000800201213046FFF73BF8C5F3C0020221AD
:101360003046FFF735F8C5F3001204213046FFF789
:101370002FF8C5F3401231153046FFF729F8C5F3B1
:101380008012F1143046FFF723F8EA09B114304611
:10139000FFF71EF84FF48044002221463046FFF745
:1013A00017F8012221463046FFF712F84046BDE803
:1013B000F04101224021FFF70BB80000000C014072
:1013C0000010014000080140FFF716F8FFF70FFF7B
:1013D000FFF796FE00F01AF8002140F23F13EF22CB
:1013E0000846FEF7D5FE084D00244FF4963600BFA0
:1013F00005EB440015F814104078FFF75BFF641C00
:10140000B442F5D3FEE70000DC16000870B5AD4C21
:10141000012280212046FEF7DBFF0520FEF7D8FEE3
:10142000002280212046FEF7D3FF0A20FEF7D0FEDF
:10143000012280212046FEF7CBFF002240212046DA
:10144000FEF7C6FF0122A04DD40321462846FEF731
:10145000BFFF012291032846FEF7BAFF1420FEF7D2
:10146000B7FE01210020FFF7B7FD0120FEF7B0FE17
:101470004AF6A4010320FFF7AFFD0120FEF7A8FE06
:1014800000210C20FFF7A8FD0120FEF7A1FE40F689
:101490000C010D20FFF7A0FD0120FEF799FE4FF48F
:1014A0002C510E20FFF798FD0120FEF791FEB02190
:1014B0001E20FFF791FD0120FEF78AFE42F63F3124
:1014C0000120FFF789FD0120FEF782FE4FF4C06185
:1014D0000220FFF781FD0120FEF77AFE0021102097
:1014E000FFF77AFD0120FEF773FE46F2700111202E
:1014F000FFF772FD0120FEF76BFE00210520FFF7CC
:101500006BFD0120FEF764FE00210620FFF764FD5D
:101510000120FEF75DFE4EF61C711620FFF75CFD04
:101520000120FEF755FE03211720FFF755FD01208E
:10153000FEF74EFE40F233210720FFF74DFD01205C
:10154000FEF746FE00210B20FFF746FD0120FEF7C7
:101550003FFE00210F20FFF73FFD0120FEF738FE80
:1015600000214120FFF738FD0120FEF731FE002168
:101570004220FFF731FD0120FEF72AFE002148201E
:10158000FFF72AFD0120FEF723FE40F23F15294612
:101590004920FFF721FD0120FEF71AFE00214A2015
:1015A000FFF71AFD0120FEF713FE00214B20FFF785
:1015B00013FD0120FEF70CFE4FF46F414420FFF7AE
:1015C0000BFD0120FEF704FE00214520FFF704FD7E
:1015D0000120FEF7FDFD29464620FFF7FDFC012016
:1015E000FEF7F6FD40F207713020FFF7F5FC012011
:1015F000FEF7EEFD4FF4017529463120FFF7ECFCB4
:101600000120FEF7E5FD29463220FFF7E5FC012029
:10161000FEF7DEFD40F2025631463320FFF7DCFCD8
:101620000120FEF7D5FD711D3420FFF7D5FC012008
:10163000FEF7CEFD29463520FFF7CEFC0120FEF750
:10164000C7FD29463620FFF7C7FC0120FEF7C0FD85
:1016500031463720FFF7C0FC0120FEF7B9FD40F20C
:10166000023529463A20FFF7B7FC0120FEF7B0FD0E
:1016700029463B20FFF7B0FC0120FEF7A9FD002121
:101680002320FFF7A9FC0120FEF7A2FD0021242062
:10169000FFF7A2FC0120FEF79BFD21462520FFF766
:1016A0009BFC0120FEF794FD00214F20FFF794FCE6
:1016B00000214E20FFF790FCBDE870402220FFF78C
:1016C00001BC000000100140000C014000000000BF
:1016D00001020304010203040607080900000000D8
:1016E00000000000000000000000000000000000FA
:1016F00000000000000000000000000000000000EA
:1017000000000000000000000000000000000000D9
:10171000000000000000000066004F12B32B75446B
:10172000D64CB54C1655B765775D364D364D975D41
:101730003755B544964495447544553C1434B42B00
:101740007323121B500A8D014C012C012C016D01D9
:10175000AE01EF01CE01CE01CE01AE018D014C01F3
:101760000B01CA00AA006900280027000700060034
:101770000600060005000500050005000500040040
:101780000400040003000300020002000200020043
:10179000020002000200020002000200010001003B
:1017A0000100010001000100010000000000000034
:1017B0000000000000000000000000000000000029
:1017C0000000000000000000000000000000000019
:1017D00001000100010001000200010001000200FF
:1017E00001000100010001000100010001000100F1
:1017F00001000100010001000100010001000200E0
:1018000003000300030003000400040004000400BC
:1018100004000400040005000400040003000400A8
:1018200004000300030003000200020002000100A4
:1018300000000000000000000000000000000000A8
:101840000000000000000000000000000000000098
:101850000000000000000000000000000000000088
:101860000000000000000000000000000000000078
:101870000000000000000000000000000000000068
:101880000000000000000000000000000000000058
:101890000000000000000000000000000000000048
:1018A0000000000000000000000000000100010036
:1018B0000200020003000300040004000000000016
:1018C0000000000000000000000000000000000018
:1018D0000000000000000000000000000000000008
:1018E00000000000000000000000000000000000F8
:1018F0000000000000000100040088002E12143CCB
:10190000954495449544975DB8655755785DD8657D
:10191000775DD54CD64CD64CB644B6443534942B72
:10192000121B500ACE018D016D014D014D016D015B
:10193000CE012F0A500A500A0F0AAD016D012C0189
:10194000CB008A0069008900690048002700070071
:10195000060006000600060005000500060005005A
:10196000050004000300030003000300030003005C
:101970000300030003000200020002000200020054
:10198000020002000100010001000100000000004F
:101990000000000000000000000000000000000047
:1019A0000000000000000000000000000000010036
:1019B0000100020002000200020002000200020018
:1019C000020001000100020002000100010001000C
:1019D00001000100010001000100010001000200FE
:1019E00003000400040004000400040005000500D6
:1019F00005000500060006000600050004000400BE
:101A000004000400040003000300020002000100BF
:101A100000000000000001000100010001000100C1
:101A200000000100000000000100010000000000B3
:101A300000000000000000000000000000000000A6
:101A40000000000000000000000000000000000096
:101A50000000000000000000000000000000000086
:101A60000000000000000000000000000000000076
:101A70000000000000000000000000000000000066
:101A80000000000000000000000000000100010054
:101A90000200020003000300040004000000000034
:101AA0000000000000000000000000000000000036
:101AB0000000000000000000000000000000000026
:101AC0000000000000000000000000000000000016
:101AD00000000200040046006800A900D01A753C0E
:101AE000B644B544F644B7653876F775F875187698
:101AF000D86D7755F64CB644763C14347323D11226
:101B00002F0ACE018E018E018D018D018E01AE0155
:101B1000AE01EF01700A900AEE016C012C01EB009E
:101B2000AA00690048004800680048002800070033
:101B30000700060006000600060006000600050075
:101B40000500050004000400040003000300030076
:101B50000300030003000300020002000200020071
:101B60000200020002000200020002000100010067
:101B70000100010001000100000000000000000061
:101B80000000000000000000000000000000010054
:101B90000100020002000200020003000200020035
:101BA0000200020002000200020002000200010026
:101BB0000100020002000100010002000200030017
:101BC00003000400040004000500050005000600F1
:101BD0000600070027004800270006000500050052
:101BE00005000500040004000300030002000200D9
:101BF00001000100010001000100010001000100DD
:101C000001000100010001000100010001000000CD
:101C100000000000000000000000000000000000C4
:101C200000000000000000000000000000000000B4
:101C300000000000000000000000000000000000A4
:101C40000000000000000000000000000000000094
:101C50000000000000000000000000000000000084
:101C60000000000000000000000000000100010072
:101C70000200020003000300040024000000000032
:101C80000000000000000000000000000000000054
:101C90000000000000000000000000000000000044
:101CA0000000000000000000000000000000020032
:101CB000040068002B010F0A0F0A3123F64C164D61
:101CC000B544B6445755B765387E788E988E798E70
:101CD0001876985D174D963CF42B331BB1123002E9
:101CE000EF01CE01AE018E018E01AE01AE01AE015B
:101CF000AE010F02500A500AAE012C012C01EB007C
:101D0000AA0069006900480069006800280008000E
:101D10000700070007000600060006000600060090
:101D20000600050005000500040004000300030090
:101D3000030003000300030003000300020003008C
:101D4000030003000300030003000200020002007E
:101D5000020002000100010001000100000000007B
:101D60000000000000000000000000000100010071
:101D7000020002000200020003000300030003004F
:101D80000200020002000200020001000200020044
:101D90000200020002000200020002000200030032
:101DA000040004000500050005000500060006000B
:101DB0000700480068008900690047000600060027
:101DC00005000500050005000400040003000300F1
:101DD00002000200020002000200020001000200F4
:101DE00001000100010001000100020002000100E9
:101DF00001000000000000000000000000000000E2
:101E000000000000000000000000000000000000D2
:101E100000000000000000000000000000000000C2
:101E200000000000000000000000000000000000B2
:101E300000000000000000000000000000000000A2
:101E40000000000000000000000000000000010091
:101E50000200020002000300240044000000000011
:101E60000000000000000000000000000000000072
:101E70000000000000000000000000000000000062
:101E8000000000000000000000000000010004004D
:101E9000A800CE01B112932B1434F64C975D9865CF
:101EA000164D374D975DF865187E788E9996788631
:101EB0001876785DD64435347323D20A910A3002FD
:101EC000EF01CF01AE018E018E01AE01AE01AE0178
:101ED000AE01EF0130020F02AE012C012C010C010A
:101EE000EB00CA00AA008A008900690048002800A7
:101EF00008000700070007000700060006000600AC
:101F000006000500050005000400040004000400AC
:101F100004000400040003000300030003000300A6
:101F20000300030003000300030003000300030099
:101F30000200020002000100010001000100010096
:101F4000000000000000000001000100010002008C
:101F50000300030003000300030003000300030069
:101F60000300020002000200020002000200020060
:101F70000200020002000100020002000300030050
:101F80000400040005000500050005000600060029
:101F900027004800690089008900680027002700A1
:101FA000060005000500050005000500040003000B
:101FB000030003000300030003000300030002000A
:101FC0000200010001000100010002000200020005
:101FD00001000100010000000000000000000000FE
:101FE00000000000000000000000000000000000F1
:101FF00000000000000000000000000000000000E1
:1020000000000000000000000000000000000000D0
:1020100000000000000000000000000000000000C0
:1020200000000000000000000000000001000100AE
:1020300001000200020023004400440000000000F0
:102040000000000000000000000000000000000090
:102050000000000000000000000000000000000080
:10206000000000000000000000000000010005006A
:10207000EA00B10A5323753CB86DD86DD76DF86D81
:10208000B76538763976186E187639765986597E5E
:10209000F86D785DB644D4231213D10AB10A710ADF
:1020A0001002CF01AE01AE01AE01AE01AE01AE0134
:1020B000AE01EF0110021002AE016D016D016D0164
:1020C0002C01AB008A008A008A006A0049002800BF
:1020D00008000700070007000700070007000700C7
:1020E00006000600050005000500050004000400C8
:1020F00004000400040004000300030003000300C4
:1021000003000300030004000400030004000300B4
:1021100003000200020002000100010001000100B2
:1021200001000100010001000100010001000200A6
:102130000300030004000400040004000300030083
:102140000300030003000300030003000200020079
:10215000020002000200020002000200030003006D
:102160000400040004000500050005000600060048
:10217000070028004800890089008900690048009C
:102180000700060006000600060006000500050020
:102190000400040004000400040004000400030020
:1021A0000200010001000100010002000200020023
:1021B0000200020002000200010001000000000015
:1021C000000000000000000000000000000000000F
:1021D00000000000000000000000000000000000FF
:1021E00000000000000000000000000000000000EF
:1021F00000000000000000000000000000000000DF
:1022000000000000000000000000000001000100CC
:1022100002000200030023004400640000000000EC
:1022200000000000000000000000000000000000AE
:10223000000000000000000000000000000000009E
:102240000000000000000000000000000300CA00C1
:10225000701A353CD54CF87599969996B996998E21
:10226000988EB996798E3876186E396E3976396EC1
:10227000F8657855D644152C731BF212D20A710AF0
:102280001002EF01CE01AE01AE01CF01CF01CF01AF
:10229000EF0110021002EF01AE016D018D016D0121
:1022A0000C01AA0069006A006A0069006900480020
:1022B00028000800080007000700070007000700C3
:1022C00007000700060006000500050005000500E0
:1022D00005000400040004000400030004000400DE
:1022E00004000400040004000400040004000400CE
:1022F00003000300030002000200020002000100CC
:1023000001000100010001000100020002000200C2
:1023100003000300040004000400040003000400A0
:102320000300030003000300030003000300020096
:10233000020002000200020002000300030003008A
:102340000300040004000400050005000600060068
:10235000070007002800480068008900890068001D
:1023600047002700060006000700070027000700B7
:102370000600060005000500040004000300030039
:10238000020001000100010002000300030004003C
:102390000400040003000300020002000100010029
:1023A000000000000000000000000000000000002D
:1023B000000000000000000000000000000000001D
:1023C000000000000000000000000000000000000D
:1023D00000000000000000000000000000000000FD
:1023E00000000000000000000000000001000100EB
:1023F0000200020023004300640085080000000082
:1024000000000000000000000000000000000000CC
:1024100000000000000000000000000000000000BC
:1024200000000000000000000100010046002F1223
:10243000B6441876387E798EB99EB99EDA9ED99EBA
:10244000FAAEDA9E79861876F865196E196EF86517
:10245000D85D3755963CF52B741BF212D20A910ABF
:1024600030020F02CF01AF01CF01CF01D001F00147
:1024700010023002510AEF018E012D014D014D0174
:102480000C01CB00AA008A008A006A00690049009A
:1024900028002800080008000800080008000700BD
:1024A00007000700060006000500050005000500FE
:1024B00005000400050005000400040004000400F9
:1024C00004000400040004000400040004000400EC
:1024D00004000300030003000300020002000200E6
:1024E00002000200020002000200020002000200DC
:1024F00002000300040004000500050004000400BD
:1025000004000400040004000300030003000300AF
:1025100003000300020002000300030002000200A7
:102520000300030003000400050005000600060088
:1025300006000700070027002700680089008800C0
:10254000480028002700480048006800680068002C
:1025500048002700270006000500040003000300D0
:102560000200020001000200030005000500050052
:102570000500050004000300030002000200010042
:10258000000000000000000000000000000000004B
:10259000000000000000000000000000000000003B
:1025A000000000000000000000000000000000002B
:1025B000000000000000000000000000000000001B
:1025C0000000000000000000000000000100010009
:1025D000020002002300440064008508000000009F
:1025E00000000000000000000000000000000000EB
:1025F00000000000000000000000000000000000DB
:10260000000000000000000002006700EE117644A8
:10261000785D387E788E598E7996798E998EB996B6
:10262000FAA6DA9E597EF965B85DF965F965D85D57
:10263000B85D374DB63CF5235313D30A920A910A7D
:10264000500A1002F001CF01CF01CF01CF01F001FC
:10265000110231025102EF016E01EC00CB00AB0020
:10266000EC000C01CB00CB008A006A006900490035
:10267000290028002800280008000800080007009A
:102680000700070006000600060006000600060018
:102690000600050005000500050005000400050012
:1026A0000500050005000500050005000400040004
:1026B00004000400040004000300030003000300FE
:1026C00003000300020002000300030002000300F5
:1026D00003000300040004000500050005000500D8
:1026E00005000500040004000400030003000300CB
:1026F00003000300030003000300030003000200C3
:1027000002000300030003000400050005000600AA
:1027100006000600070007004700680089008900DE
:1027200068006800680068008900A900A900A90085
:1027300089008800680027000600050003000300E8
:1027400003000200020003000400260048004700C6
:102750002600260006000500040003000300020016
:102760000100000000000000000000000000000068
:102770000000000000000000000000000000000059
:102780000000000000000000000000000000000049
:102790000000000000000000000000000000000039
:1027A0000000000000000000000000000100010027
:1027B00002000200230044006408850800000000B5
:1027C0000000000000000000000000000000000009
:1027D00000000000000000000000000000000000F9
:1027E000000000000000010067008E01D333575540
:1027F000F775788E588E3886597E397E597E59867F
:102800007A867A863A76F965D865D865B95D98553D
:102810007855174DB63CF5235313F312B20AB10A9B
:10282000910A510230021002F001F0011002100270
:102830001102F001CF01AF018F01EC006A00CB0063
:102840002D014D012D01EC008A006A006A0069002B
:102850004900490029002900290029000800070033
:102860000700070006000600060006000600060036
:10287000060006000500050005000500050005002E
:102880000500050005000500050005000500040021
:10289000040004000400040004000300030003001B
:1028A0000300030003000300030003000300030010
:1028B00003000300040005000500050006000600F3
:1028C00006000600050004000400040004000400E3
:1028D00003000300030003000300030003000300E0
:1028E00003000300030003000400040005000600C9
:1028F0000600060027002800480068008900A9009B
:1029000089008900880068008900A900EA00EA00BF
:10291000CA00A90068004800260005000500040060
:102920000300020002000300050047008800880041
:10293000670067002700060004000400030003008E
:102940000200010000000000000000000000000084
:102950000000000000000000000000000000000077
:102960000000000000000000000000000000000067
:102970000000000000000000000000000000000057
:102980000000000000000000000000000100010045
:1029900002002200230044006408850800000000B3
:1029A0000000000000000000000000000000000027
:1029B0000000000000000000000000000000000017
:1029C0000000000001000100EA00900A553C187662
:1029D000DAA6D9A6999E5986597E3976597E5976B6
:1029E000196EF96DF965D965D95DD95DD95DD85D87
:1029F0005855D7449734F523741B1413F212F3126D
:102A0000D30AB20A710A710A51025102510230020C
:102A10001002F001AF01AF01AF01EC004900CC00A2
:102A20006E018E018E012D01CB008A008A006A00A2
:102A3000490049004900290049002900090008000F
:102A4000070007000700070007000700070007004E
:102A5000060006000600050005000500050005004B
:102A6000050005000500050005000500050005003E
:102A70000400040004000400040004000400040036
:102A8000040004000400040003000300030003002A
:102A90000300040004000500050005000600060010
:102AA0000600060005000400040004000400040001
:102AB00004000400030003000300030003000300FC
:102AC00003000300030003000400040005000500E8
:102AD0000600270028004800680088008900AA0036
:102AE000AA00A900A90089008800A900CA00EA007C
:102AF0000A01CA00A900880047002600050004005A
:102B0000030002000100030005006800C900A800DE
:102B1000870067004700260005000400030003004B
:102B200002000100010000000000000000000000A1
:102B30000000000000000000000000000000000095
:102B40000000000000000000000000000000000085
:102B50000000000000000000000000000000000075
:102B60000000000000000000000000000100010063
:102B700002002200430044006408850800000000B1
:102B80000000000000000000000000000000000045
:102B90000000000000000000000000000000000035
:102BA00000000000010001008800F11A976DB99E35
:102BB0005BC77BCF3AB7FAA6998E597E3976196EE4
:102BC000D965B95D7855785578559855D965F965C1
:102BD0009855D63C7634362CD423741B541B341BA6
:102BE0001313F312B10A920AB20AB20A510A10027E
:102BF000F0018F010D01EC00EC004A0009000D010D
:102C0000CF01CF01CF01AE010D01AB008A006A00F8
:102C10006A006900490049004A00290029000800AB
:102C2000080007000700070006000600070007006D
:102C30000700060006000600060005000500050066
:102C4000050005000500050005000500050005005C
:102C5000050005000500050005000500050005004C
:102C60000500050005000400040004000400040041
:102C7000040004000400050006000700060006002A
:102C8000060006000500040004000400040004001F
:102C90000400040004000400040003000300030017
:102CA0000300030003000400040005000500060003
:102CB000070027004800690089008900A900A900D1
:102CC000CA00CA00A900A900A900A900AA00EA0038
:102CD0000A012B010A01EA008900680027000600AA
:102CE000040003000100020005008800E900E9007B
:102CF000A9008800680047002600050004000300C2
:102D000003000200010000000000000000000000BD
:102D100000000000000000000000000000000000B3
:102D200000000000000000000000000000000000A3
:102D30000000000000000000000000000000000093
:102D40000000000000000000000000000100010081
:102D500002002300430064006408850800000000AE
:102D60000000000000000000000000000000000063
:102D70000000000000000000000000000000000053
:102D800000000000000001008600964CBA963AB799
:102D9000DCE7DCE7BCD73BB7BA9E397ED965D85DA6
:102DA000D865B95D574D1745F744374D5855785597
:102DB000384DB734562C562C562CF52BB42394236F
:102DC0009423541BF312B20AD20AB20A31028E01C2
:102DD0000D01EC00AC004A002800080049006E011B
:102DE00010021002110210028E01CC006A006A006B
:102DF0006A0049004A0049004A004A002A002900A6
:102E00000800080008000700070006000700070088
:102E10000700070006000600060006000500050082
:102E2000050005000500050005000500050005007A
:102E3000050005000500050005000500050005006A
:102E4000050005000500050004000400040004005E
:102E50000400040004000500060007000700060047
:102E6000060006000500050005000400040004003B
:102E70000400040004000400040004000400030033
:102E80000300030003000400040005000600060020
:102E90000700280069008900A900AA00A900AA006B
:102EA000CA00CA00AA00A900A900A900A900EA0056
:102EB0002B014B016C014B01EA00A90068002700BF
:102EC000060004000300030004004700A800EA0015
:102ED000EA00C9008800680026000600040004001B
:102EE00003000200010000000000000000000000DC
:102EF00000000000000000000000000000000000D2
:102F000000000000000000000000000000000000C1
:102F100000000000000000000000000000000000B1
:102F2000000000000000000000000000010001009F
:102F300002002300430064006408850800000000CC
:102F40000000000000000000000000000000000081
:102F50000000000000000000000000000000000071
:102F600000000000000001002500923BBA9E5BC7F4
:102F7000FDE7FDEF9BD71AAFBA9EF96D585557552F
:102F800098557755374DF744D73CD73C1745F7440C
:102F9000D73C9734762C9734B73476345634152C86
:102FA000F52B95231313B20A510231028F01ED0064
:102FB0004A00290028000600050006006A006E018C
:102FC0001002310251025102CF010D018B006A0043
:102FD0006A006A004A004A004A004A0029002900A3
:102FE00009000800080008000700070007000700A4
:102FF000070007000700060006000600060006009E
:103000000600050005000500050005000500050097
:103010000500050005000500050005000500050088
:103020000500050005000500050004000500050079
:103030000400040004000500060007000700060065
:103040000500060005000500050005000500050057
:103050000400040004000400040004000400040050
:10306000030003000300040004000500060006003E
:1030700007002800490089008900A900AA00AA00C9
:10308000CA00CA00AA00AA00AA00AA00AA00EA0070
:103090002B018C01AC018C016B012B01E900880034
:1030A00047000600050005000500260088000A010B
:1030B0000A01E900A8008700470006000500040097
:1030C00003000300020001000100010000000000F5
:1030D00000000000000000000000000000000000F0
:1030E00000000000000000000000000000000000E0
:1030F00000000000000000000000000000000000D0
:1031000000000000000000000000000001000100BD
:1031100002002300430064006508850800000000E9
:10312000000000000000000000000000000000009F
:10313000000000000000000000000000000000008F
:1031400000000100010001000300B24B5BB71AB799
:10315000BCD7DCDF7BC7FAA67A8ED865174DF7445B
:103160001745174DF73CB7347734772C973497349D
:10317000773477349734B734B73C96349734562C39
:10318000152C9523B20A3102AF012D010D018A00E1
:1031900008000700060005000500050028000D01D5
:1031A000D001510A720A5102F0014D01AC008B00AE
:1031B0006B006A006A006A004A004A004A0029005F
:1031C00009000900080008000800080008000800BD
:1031D00008000700070007000600060006000600BA
:1031E00006000600060006000600060006000600AF
:1031F00006000600050005000600060005000500A3
:10320000060006000600060006000600060005008F
:103210000400040005000500060006000500050086
:103220000500060006000500050005000400050075
:10323000050005000400040004000400040004006C
:10324000040004000400040004000400050006005B
:103250000700270028006900890089008A00AA0069
:10326000CA00CA00CA00CA00AA00AA00AA00CA006E
:103270000B016C01AC01AD01AD01AC016B012B0187
:10328000CA0088002700270027006800EA004B01D9
:103290004B010A01A900880047002700060005002D
:1032A000040004000300020001000100010000000E
:1032B000000000000000000000000000000000000E
:1032C00000000000000000000000000000000000FE
:1032D00000000000000000000000000000000000EE
:1032E00000000000000000000000000001000100DC
:1032F00002002300430064088408850800000000E1
:1033000000000000000000000000000000000000BD
:1033100000000000000000000000000000000100AC
:1033200001000100010001000400176DBBC71BAFC5
:103330003BBF7BC71BAF9A963A7E985DF744B63C7D
:103340009634B73496349734772C572C362435245A
:10335000362C762CB734D83CD83C9734362C162CE7
:10336000D52B541BD30AF0012E01CC006B004A0070
:1033700008000700060005000500050006008B0098
:103380006E01510A510A510A11028F010D01AB0061
:103390008B008B008B004A004A004A002A002A005A
:1033A0002A00090009000800090029002A00090074
:1033B00008000700070007000700070007000700D4
:1033C00006000600060006000600060006000600CD
:1033D00006000600060006000600060006000600BD
:1033E00006000600060006000600060006000500AE
:1033F00005000500050005000500050005000500A5
:103400000500060006000500050005000400050093
:103410000500050005000500050004000400040087
:103420000400040004000400040004000500060079
:10343000060007002700480069008900AA00CA00AA
:10344000CA00CB00CA00CA00AA00CA00A900A9008D
:10345000EA004B018C01CD01ED09ED09CD01AC0174
:103460006C010A018800470027008800EA006B0110
:103470008C012B01CA008800670047002700050067
:103480000400040004000300020001000100010028
:10349000000000000000000000000000000000002C
:1034A000000000000000000000000000000000001C
:1034B000000000000000000000000000000000000C
:1034C00000000000000000000000000001000100FA
:1034D00002002300430064088408A50800000000DF
:1034E00000000000000000000000000000000000DC
:1034F00000000000000000000000000001000100CA
:10350000010001000100010003006B09D65CBA9EB6
:10351000FAAE3BBFBA963A76196E785DF73C7634D0
:10352000562C562C562C762C7734562C15241524D4
:10353000562C9734D73C384D184D973CF52B951B9E
:10354000541B1313F312310A6F018B00080007009C
:10355000080007000600050005000500050007003B
:10356000CC00F0013002310251021002AF012D01F6
:10357000AC008B006B006B004A004B002A002A0055
:103580004B002A00290029004A004A004B002A006B
:1035900009000800080007000700070007000700EF
:1035A00007000700070006000600060006000600E8
:1035B00006000600060006000700070007000700D7
:1035C00007000700070007000600050006000600C8
:1035D00006000500050005000500050005000500C2
:1035E00005000600060006000500050005000500B0
:1035F00005000500050004000500050004000400A6
:103600000400040004000400040004000500050098
:103610000600060006002800490089008900AA006B
:10362000CA00CA00CA00CA00CA00AA00A900AA00AB
:10363000CA002B016C01AD01CD01ED01ED09ED09D1
:10364000CD016B01E9008800470048006800C9000F
:103650004B014B010A01C9008800670047002600A2
:10366000060005000500040003000200020002003D
:103670000100000000000000000000000000000049
:10368000000000000000000000000000000000003A
:10369000000000000000000000000000000000002A
:1036A0000000000000000000000000000000010019
:1036B00022002300630864088508A51000000000AC
:1036C00000000000000000000000000000000000FA
:1036D00000000000000001000100010001000100E5
:1036E00002000100020002000300A900754C3BB774
:1036F0009BCF7BC7DA9EF96D985D3755D74456341A
:1037000097345734362C762C973497349734973433
:10371000D73C184D78559855584DB734F623541B5F
:10372000F30AF312131331024E016A000600060079
:10373000070006000600050006000500050006005B
:103740006A006E01100211027102910A11028F01CA
:103750000D01EC00AC008B006B004B004B002B000C
:103760004B004B004A004A004B004B006B002B0003
:1037700029000900080008000800070008000700E9
:103780000700070007000700060006000600070004
:1037900007000700070007000700070008000700F0
:1037A00007000700070006000600060006000600E6
:1037B00006000600060006000500050005000500DD
:1037C00005000600060006000600060006000500CB
:1037D00005000500050005000500050005000500C1
:1037E00004000400040004000400040004000500B8
:1037F000050005000600070028006900690089002F
:10380000A900AA00AA00AA00AA00A900A900AA006B
:10381000CA00EA002B014C018C01AC01CD09EE0974
:10382000EE09CD016B01EA00A80088006800A9003C
:103830004B01AC01AC012A01A900880068004700D7
:103840002700260006000500040003000300030013
:103850000200000000000000000000000000000066
:103860000000000000000000000000000000000058
:103870000000000000000000000000000000000048
:103880000000000000000000000000000000010037
:1038900002002300630864088508A51000000000EA
:1038A0000000000000000000000000000000000018
:1038B0000000000000000100010001000200010002
:1038C00002000200020002000500B3433BAFBCDF70
:1038D000FDF7DCDF5BBF598E585DF744D644F744F3
:1038E000184D1845B73CB634F73C384D5855795DFE
:1038F000B95DF9651A763A76D965D7441624751BF1
:10390000B51BB523F41211020E014A000600060091
:103910000700060006000500060005000500060079
:103920000900CC00AF0110025102B30A7102D001AC
:103930002E010D01EC00AC00AC008B006B004B00C5
:103940004B004B004B006B006B006B006B004B009F
:103950002A002900290009000900080008000800C1
:10396000080008000700070007000600070007001E
:10397000070007000700070007000800080008000C
:1039800008000800070007000600070007000600FF
:1039900006000600060006000500050005000500FB
:1039A00005000600060006000600060006000600E8
:1039B00006000600060006000600060005000500D9
:1039C00005000400040004000400040004000400D6
:1039D00004000400050006000700280048006900F4
:1039E000890089008900AA00AA00AA00AA00CA00CA
:1039F000EA000A010B012B016C018C01AD01CD0124
:103A0000ED09CD01AC014B010A010A010B012B01AB
:103A1000AC01ED09ED096C01E900A800880068001F
:103A200068004700270006000500040003000300AB
:103A30000300020000000000000000000000000081
:103A40000000000000000000000000000000000076
:103A50000000000000000000000000000000000066
:103A60000000000000000000000000000000010055
:103A70002200420063086408A508C5100000000089
:103A80000000000000000000000000000100010034
:103A9000010001000100010001000100010002001D
:103AA0000100020002000200470096547BB7DDDFF0
:103AB000FDEFDCDFBCCFFA9ED96D37555855B95DA7
:103AC000D9657855384D384D584D995D1A6E3A760E
:103AD0001A6E3A763A765B76B965D8443634D52391
:103AE000F6233413F0014E016B00070006000600B8
:103AF0000700070006000600060006000500060095
:103B000008006B000D016E01D0013102510A310233
:103B10008F012E014E012E01ED00AC008C006B00D8
:103B20006B006B006B006C008C008C008B004B00FA
:103B30002A002A00290009000900090009000900DB
:103B4000080008000800070007000700070007003A
:103B50000700070007000700080008000900090027
:103B60000900080008000700070007000700070019
:103B70000600070006000600050005000600050017
:103B80000600060006000600060007000600060004
:103B900006000600060006000600060006000500F6
:103BA00005000400040004000400040004000400F4
:103BB0000400040005000500060007002800490075
:103BC000690069008900AA00CA00CA00CB00EB00A6
:103BD0000B012B012B012C014C016C018C01AD015F
:103BE000CD01CC01AC018C018C01AD01ED090D0AB8
:103BF0000D0A2E120E12CC014B01C900C90088001B
:103C00008800680047002700060005000400040043
:103C1000030002000100000000000000000000009E
:103C20000000000000000000000000000000000094
:103C30000000000000000000000000000000000084
:103C40000000000000000000000000000000010073
:103C50002200420063006408A508C51000000000AF
:103C60000000000000000000000000000100010052
:103C70000100010001000100020002000200010039
:103C800002000200020002000500D122FA9E5CC779
:103C90005CBF5CBF9BD77BC7DB965A8619763A7EA2
:103CA0003A7EFA65795579557955B9651A6E1A765D
:103CB0001A763A765B7EFA6D584D3624D623961BDB
:103CC000520A0E012A00080007000700070006003C
:103CD00007000700060006000600060006000600B2
:103CE00029004B004A006A008B00AC00ED00B001D7
:103CF000B0016F016F016F012F01EE00AC008C006D
:103D00006C008C008C008C008C00AC008C006B0074
:103D10004A004A002A002900090029002900090058
:103D20000900090009000800080008000800080050
:103D30000800080008000800090008000900090040
:103D40000900090008000800080008000800070032
:103D5000070007000700070006000600060006002F
:103D60000600060006000600060007000700060021
:103D70000600060006000600060006000600050014
:103D80000500050005000400040004000400040010
:103D900004000400040005000600070008002800D5
:103DA0002800480049008900AA00CB00EB00EB0086
:103DB0002B012C014C014C014C016C016C018C015C
:103DC000AC01AC01CD01ED092E126F12D022D01A38
:103DD000CF1ACF228F1A0E0A8C012B01EA00CA00DB
:103DE000A90088008800680047000600050004005C
:103DF00003000300010000000000000000000000BC
:103E000000000000000000000000000000000000B2
:103E100000000000000000000000000000000000A2
:103E20000000000000000000000000000000010091
:103E30000100420063008408A408C51000000000CF
:103E4000000000000000000001000100010001006E
:103E50000100020002000200020002000200020053
:103E600002000200020002000400F2227B86FBA690
:103E7000FB9E5BB7BCD79BC7FAAEFBA6DB9EBB968F
:103E80009B8E7B865A7EF96DD965F96D1A6EB95D88
:103E9000995D1B76DA6D184DF62B720A3202D00945
:103EA0008B00090008000700070007000700070053
:103EB00007000700060006000600060006000800CE
:103EC0002A002A002900290029002A006B002E015F
:103ED0008F01B00190018F018F014E01ED00AD0007
:103EE0008C00AC008C008C008C00AC008C006C0052
:103EF0004B004B004A002A00290029002900290014
:103F0000290009000900090008000800080008004D
:103F100008000800090009000900290009000A003A
:103F20002A0009000900090009000800080008002B
:103F3000070008000700070006000600060006004C
:103F40000500050006000600060007000700070040
:103F50000600060006000600070006000600060030
:103F6000050005000500050004000400040004002D
:103F70000400040005000500060007000700070014
:103F800007000700280048006900A900EA000B01AB
:103F90002B012B014B016C018D018C018C018C01DB
:103FA0008C018C018C01AD010E0A8F1A1123312B6B
:103FB000512B512B112B6F12ED098C014B010A0172
:103FC000EA00A900A9008900680047000600040073
:103FD00003000300020000000000000000000000D9
:103FE00000000000000000000000000000000000D1
:103FF00000000000000000000000000000000000C1
:1040000000000000000000000000000000000000B0
:104010000100420063008408A408C51000000000ED
:104020000100010001000100010001000100010088
:104030000200020002000200020002000200020070
:10404000030002000200020003006800EE11ED0907
:10405000F22A9B961BB71BAFFBA6BA96FA9EFBA64D
:10406000FBA6DB96DB96DB967B7E1A76B95D384540
:10407000D73C7734372C7212CD004A002900080053
:1040800008000800070007000700070007000700F6
:1040900007000700070007000600060006000800EA
:1040A000290009000900090009002A006B00AC0082
:1040B0002E018F01B001D00190014F010E01ED00E2
:1040C000CD00CD00AC008C00AC00CD00AD008C006C
:1040D0006B006B004B004B004A002A0029002900AE
:1040E0002900290029002900090009000900090008
:1040F00009000900090029002A002A002A002A00D4
:104100002A002A002A002A000900090008000800E5
:104110000800080007000700060006000600060069
:10412000050006000600060006000700070007005D
:104130000700070007000700070007000600060049
:104140000600060005000500050005000400040047
:104150000400050005000500050006000600060035
:10416000070007000700280048006900CA00EB00AC
:104170000B010B012B018C01AD01AD01AD018C01D7
:104180008C018C018D018D01CD014F121123522B19
:10419000723392339233F0226F12ED098C012B01AE
:1041A0000A01EA00CA00C900A9006800260005004B
:1041B00004000300020001000000000000000000F5
:1041C00000000000000000000000000000000000EF
:1041D00000000000000000000000000000000000DF
:1041E00000000000000000000000000000000000CF
:1041F00001002200630063088408C510000000006D
:1042000001000100010001000100010002000200A4
:10421000020002000200020002000300020002008D
:104220000200020003000300030003000300030078
:104230002700B433F9655A7E5A865A86DB961BA747
:104240001BAFBA969B8E5A86995DD73C572C582C3B
:104250007734551B6F01290008000700070007008D
:104260000800080007000700070007000700070014
:104270000700070007000700070006000600060009
:10428000070007000700090009004A006C008B00C6
:104290008B008C00CD000D012E012F012F010E018E
:1042A0000E010E01CD00AD00AD00CD00CD008C00A3
:1042B0006C008B006B006B004B004A002A00290049
:1042C000290029002900290029002A0029002900A5
:1042D0000900090029002A002A004A004B002A0090
:1042E0002A004B004B002A002A002A00090009007E
:1042F0000900080008000700070006000600060085
:104300000600060006000600070007000700070079
:104310000800080007000700070006000600060066
:104320000600060006000500050005000500040063
:104330000500050005000500050006000600060052
:104340000600060007000700280048008900AA00B0
:10435000CA00CA002B014C018D01AD01AD01AD01B8
:10436000AD01AD01AD01AD01ED096F1A3123722B25
:10437000B333B333B333522BD01A2E12ED018C0169
:104380002B012B010B010B01EA00A90047000600DD
:104390000400030002000100000000000000000013
:1043A000000000000000000000000000000000000D
:1043B00000000000000000000000000000000000FD
:1043C00000000000000000000000000000000000ED
:1043D00001002200630063088408A51001000100A9
:1043E00001000100010001000100010002000200C3
:1043F00002000200020002000200020003000300AB
:104400000300030003000300030003000400050091
:1044100004008A00D312595539765A7E9B8EDB9E52
:10442000DB9EBB8E5A7EBA5D9523D1016F014E0192
:10443000F10990096B000700070007000800090058
:104440000900080007000700070007000700070031
:104450000700070007000700070007000600070025
:10446000070007000700070029004B006B00290028
:104470000800090009002A008C000E016F016F017D
:104480006F016F014E01EE00CE00ED00AD008D001A
:104490008D008C008C008C006C004B002A002A00E0
:1044A0002A002A004A004A002A004B004A002A003B
:1044B0002A0029002A004A004B006B004B004B00E9
:1044C0004B004B006B004B004B002B000A00090017
:1044D00009000900080008000700060006000600A1
:1044E0000600060007000700070007000700080095
:1044F000080009000800080007000700070007007F
:10450000070007000600060006000500050005007C
:104510000500050005000500050005000600060071
:1045200006000600060006000700080029004800F3
:1045300089008900CA002B014C016D018D01AD017C
:10454000AD01CD01CD01CD010E0A901A322BB3334E
:10455000F33BD3339233512BD01A2E12ED09AD0118
:10456000AC016B016C016B012B01CA0068002600D5
:10457000050004000200010000000000000000002F
:10458000000000000000000000000000000000002B
:10459000000000000000000000000000000000001B
:1045A000000000000000000000000000000000000B
:1045B00001002200420083088408A50801000100D0
:1045C00001000100010002000200020002000200DE
:1045D00002000200020002000200020003000300C9
:1045E00003000300030004000400040004000400AE
:1045F000050006004800F31A5955DA65995DFA6D11
:104600001B9F1C9F194D751B2E010A0008000700F7
:1046100028002900080006000700070029002A00DA
:10462000090008000700070007000700070007004F
:104630000700070007000700070007000700070042
:10464000070007000700070029006B004B00090066
:104650000900090009000A006C002F01B001D10116
:10466000D101D101B0014F012E010E01CD00AD00ED
:10467000AD00AD00AD00CD00AD008C006B004B0077
:104680004B004B004A004B004B004B004B004B00D3
:104690004B002A002A004B006B006B008B008B0044
:1046A0008B008B008C008C006B002A000A00090034
:1046B00009000900090008000700070007000700BB
:1046C00006000700070008000800080008000800AE
:1046D0000800290029000900080008000700070059
:1046E000070007000600060006000600050005009A
:1046F0000500050005000500050005000500060091
:104700000600060006000600060007002800280034
:10471000480069008900EA002C014C016C018D0100
:10472000CD01CD01CD01CE090E0A901A522BD33BFB
:10473000F43BD33BB333312B901A2E120E0ACD0922
:10474000CD01AC018C016B012B01EA00890027002F
:104750000600050004000200010001000000000046
:104760000000000000000000000000000000000049
:104770000000000000000000000000000000000039
:104780000000000000000000000000000000000029
:1047900001002200420063008408A5080100010016
:1047A00001000200020002000200020002000200FA
:1047B00002000200030003000300030003000300E3
:1047C00003000400040004000400040005000500C8
:1047D00005000500050029006D09CF09720AF62BB6
:1047E000FA65F84CF101AC0008000700070007006B
:1047F0000700070007000600070008002A002A003B
:10480000080007000700080007000700070007006E
:10481000070007000700070007000700080007005F
:10482000070007000700070008002A002A00090007
:1048300009002900090029006B000E01D1011202B4
:1048400032023202110290016F012E01EE00CD0002
:10485000CD00EE00EE000E01EE00CD00AD008C00AC
:104860006C006B006B006B006B006B006C006C00ED
:104870008C006C006B006C008C006C008C008C0059
:104880008C008C008C008D008C004B002A000A00EC
:104890000A000A00090008000800070007000700D6
:1048A00006000700070008000900090008000900C9
:1048B0000900090029002900090008000800080073
:1048C00007000700070006000600060006000600B5
:1048D00005000500050005000500050005000500B0
:1048E0000500060006000600060006000700070097
:1048F000270028006900A900EA000C012C014C01E6
:104900008D01CD01EE010E0A4F12D01A722BD33B4E
:10491000F33BD33BB333522BB01A2E120E0A0E0ABE
:104920000E0ACD09AC018C014B010A01A900470018
:104930000600060004000300020001000100000060
:104940000000000000000000000000000000000067
:104950000000000000000000000000000000000057
:104960000000000000000000000000000000000047
:1049700001002200420063008408A4080200020033
:104980000200020002000200020002000200020017
:104990000200020003000300030003000300030001
:1049A00003000400040004000400040005000500E6
:1049B0000500050005000600060007000800AC0021
:1049C0008F09AC0009000700070007000700070077
:1049D0000700070007000700070008000A00090099
:1049E000080007000800080008000800070007008A
:1049F000070007000700070007000700070008007E
:104A00000800080008000800080008000800090065
:104A10000900090009002A006B000E01D1013202D1
:104A2000520272025202F1018F014F010E010E017A
:104A30000E010E010E012E010E01EE00EE00CD0062
:104A4000AD008C008C008C008C008C008C008D00E4
:104A5000AD00AD008C008D008D00AC00AD008D0070
:104A60008D008D008D00AD008C006C004B002A0085
:104A70000A002A00090009000800070007000700D3
:104A800007000700080009000A000A0009000900E1
:104A900008000800080008000900080008000800D5
:104AA00008000800070007000700060006000600CF
:104AB00006000600050005000500050005000500CC
:104AC00005000500050005000600060006000600BA
:104AD0000700070028006900AA00EB000B012C0169
:104AE0006C01AD01EE090E0A6F12F11A722BF33B45
:104AF00034441444F33BB233112B6F1A4F124F124C
:104B00004F122E0AED09AC016C012A01C9006800A0
:104B10002700270006000500040003000200010032
:104B20000100010000000000000000000000000083
:104B30000000000000000000000000000000000075
:104B40000000000000000000000000000000000065
:104B500001000100220042008408840802000200D3
:104B60000200020002000200020002000200020035
:104B7000030003000300030003000300030004001C
:104B80000400040004000400050005000500050001
:104B900005000500050006000600060006000600E8
:104BA00006000600060007000700070007000700D0
:104BB00007000700070007000700070008000800BB
:104BC00007000800080008000800080008000800A6
:104BD0000800080008000800080008000700080096
:104BE0000800080008000900080008000900090082
:104BF000090009002A004A008C000E01B0013102B0
:104C00009202B30A92023102B00170014F016F01AA
:104C10004F014E012F014F012F010E010E01EE0039
:104C2000CD00AD00AD008D00AD00AD00AD00AD001C
:104C3000AD00AD00AD00AD00CD00CD00CD00CD008C
:104C4000CD00AD00AD00AD00AC006C004B002B0002
:104C50002B002B000A000A000900090008000800C8
:104C600008000800090009000900090009000800FF
:104C700008000800080008000800090029002900B1
:104C800029002900090008000800070007000700A4
:104C900006000600060005000500050004000400EB
:104CA00005000500050005000500060006000600D9
:104CB00006000700070028008900AA00CA000B01AF
:104CC0006C01CE010F0A4F12B01A1123522BD33BA5
:104CD0005444544454443444B3331123D01AB01AC6
:104CE000B01A4F120D0AAC014B010A01C90088002D
:104CF0006800480047002700060005000400030084
:104D000002000100000000000000000000000000A0
:104D10000000000000000000000000000000000093
:104D20000000000000000000000000000000000083
:104D30000000010022004300630884080200020012
:104D40000200020002000200020003000300030050
:104D50000300030003000300040004000400040037
:104D6000040004000500050005000500060005001C
:104D70000500060006000600060007000700070001
:104D800006000700070007000700070007000700EC
:104D900008000800080008000700080008000700D5
:104DA00007000800080008000800080008000800C4
:104DB00008000800080008000800080008000800B3
:104DC000080008000900090009000900290029005D
:104DD00029002A002A006B00AD002F01F1017202A8
:104DE000920AD30AB30A3102D00190016F016F0118
:104DF0006F014F014F016F014F014F012E010E0155
:104E0000EE00CD00CD00AD00AD00CD00CD00CD0059
:104E1000CD00CD00CD00CD00ED00EE00CD00ED00C9
:104E2000ED00ED00EE00CE00AD006C006B004B001D
:104E30002B004B002B000A000A000A000A000A009F
:104E40000A002A002A002A000A000A0009000900B4
:104E500008000800080008000800080029000900F0
:104E60002A004A004A00090008000800070007005D
:104E70000600060006000500050005000400040009
:104E800004000500050005000500060006000600F8
:104E9000060006000700280069008900AA00EB0050
:104EA0004C01AD010E0A7012D11A1123722BD33BA3
:104EB000744C954C954C754C544CB33331231023A2
:104EC000F0228F1A0E0A8C012B01EA00890088005B
:104ED0008800A900A900A8006800270006000500B6
:104EE00003000100010000000000000000000000BD
:104EF00000000000000000000000000000000000B2
:104F000000000000000000000000000000000000A1
:104F1000000001002200430064088408020002002F
:104F2000020002000200030003000300030003006C
:104F30000300030003000400040004000400050053
:104F40000500050005000500050005000600060037
:104F5000060006000600060007000700070007001D
:104F60000700070007000700070007000700080008
:104F700008000800080008000800080008000700F2
:104F800008000800080008000800080008000800E1
:104F900008000800080008000800080009000900CF
:104FA000090029000900290029002A002A002A00F6
:104FB0002A002A004A006B00AD0070015202F31271
:104FC000F4121413F30A7202F101B001900190017E
:104FD00070016F016F0170016F016F012F012E01D0
:104FE0000E010E01EE00CD00CD00EE00CD00EE0072
:104FF000EE00EE00EE000E010E010E01EE000E01BD
:105000000E010E010E01EE00CD00AD008C006B0014
:105010006B006C004B004B002A002A002B002A007A
:105020002B004B006B004B002A000A00090009000E
:10503000090009000900090008000800080009002B
:105040002A006A006B004A002900080008000800D6
:105050000700060006000600050005000500040024
:105060000400050005000500050005000500060018
:105070000600060006000700280069008900CA0033
:105080000B016D01EE016F12F11A3123722BD33B2C
:10509000754CB654D654D654B55434449233312357
:1050A0001023B01A2E12AD014B01CA00AA00CA008B
:1050B000EA00EA00EA00EA00CA00A9004800260067
:1050C00004000300020002000100010000000000D3
:1050D00000000000000000000000000000000000D0
:1050E00000000000000000000000000000000100BF
:1050F0000100020022004308640884080200020044
:105100000200030003000300030003000300030088
:10511000040004000400040004000400050005006D
:105120000500050005000500050005000600050056
:105130000600070007000700070007000700070038
:105140000700070007000700070007000800080025
:10515000080008000800080008000800080008000F
:1051600008000800080008000800080008000800FF
:1051700008000800080009000900090029000900CA
:10518000090009000A00290029002A002A002A0033
:105190002A004B004B008C000E011102F312741B0D
:1051A000751B34131413920A3102F101B0019001FE
:1051B0007001900190016F016F016F014F012F018C
:1051C0002E010E010E010E010E010E010E010E0147
:1051D0000E010E010E012E012F012E014F014F0174
:1051E0004F014F012E010E01EE00CD00AD008D00EC
:1051F0008C006C006B004B004B004B004B004B00D5
:105200004B004B006B006B006B004B002A00090049
:105210000900080008000900090008002900290009
:105220004A008B00AB006B002A002900090008002F
:10523000070007000700060006000500050005003E
:105240000400050005000500050005000500060036
:105250000600060006000700080048006900AA00D2
:10526000EB004C01CE014F0AD01A3123722BF43BD4
:10527000954CD654D65CD654D5549554143C9233A0
:10528000512BD0224F12CD018C012B010A012A0192
:105290004B014B012B012B01EA00EA00A80068003A
:1052A00006000400030003000300020002000100E6
:1052B00000000000000000000000000000000000EE
:1052C00000000000000000000000000002000100DB
:1052D0000200020023004300640884080200020068
:1052E00003000300030003000300030003000400A5
:1052F000040004000400040005000500050005008A
:105300000500050005000500060005000600060072
:105310000600070007000700070007000700070056
:10532000070008000800070008000800080008003F
:10533000080009000800080008000800080008002C
:10534000080009000800080008000800090009001A
:1053500029002900090009000900090009000900C5
:1053600009000A002A002A002A002A002A002B002D
:105370002B004B006C00CD008F017202341395237B
:105380009523541B3413D30A730A3102D001B001A0
:1053900090019001900190016F0170014F012F0168
:1053A0002F012F014F012E012E012E014E014F0121
:1053B0002F012F012F012F014F014F016F016F01AD
:1053C0006F016F016F014F010E01EE00CD00AD00C6
:1053D000AD008D006C006C006C008C008C008C00AB
:1053E0006C004C006B008C008C006C004B000A00C1
:1053F0000A00090009000900090009000900090064
:105400002A006B008B008B006A004A002A002900EA
:105410002800080007000700060006000600050037
:105420000500050005000500050006000600060051
:105430000600060007000700070008004900890071
:10544000CA000B016D01EE099012F122722BF43BA0
:105450009554D654D65CD654B554B654954C144491
:10546000B333312BB01A0E0ACD018C016C016C01E3
:105470008C018C016C014B010B010A01CA008800F0
:105480004700260005000500050005000300030095
:10549000010000000000000000000000000000000B
:1054A00000000000000000000100020003000300F3
:1054B000030003002300430864088408030003007A
:1054C00003000300030003000400040004000400C0
:1054D00004000400040005000500050005000500A7
:1054E000050005000600060006000600060006008E
:1054F0000700070007000700070007000700070074
:10550000080008000800080008000800080008005B
:105510000800090009000800080008000800080049
:105520000900090009000900090009000900090033
:105530000A000A000A000A000A000A000A000A001B
:105540002A002A002A002A002A002A004B004B00C9
:105550004B004C008C00CE00B001F312541B741BA6
:105560009523551B3413F412B30A52021102F101B0
:10557000D101B001900190016F016F016F014F01E6
:105580004F016F016F016F016F016F017001900199
:1055900070016F016F016F016F0190019001B00107
:1055A000B001B00190016F012F010E01EE00CD009E
:1055B000CE00CD00AD00AD00AD00AD00AD00AD0042
:1055C0008C006C008C00AC00AC00AC004B000A00FE
:1055D0000900090009000900080008000800080087
:1055E00009002A004A006B008B006B004A004A0049
:1055F0002900090008000700070006000600050052
:105600000500050005000500050005000600060070
:1056100006000600060007000700080028006900D1
:10562000AA00EB004C01AE012F0AB01A1123B333CC
:10563000954CD654D654B6549554B554B554754C6F
:10564000D33B312BD01A4F12EE09CD01AC018C01A6
:105650008C01AC018C014B012B010A01EA00A9006D
:1056600089006800470027002700070005000400A4
:105670000200010000000000000000000000000027
:10568000000000000000010002000400040004000B
:105690000400230023004408650885080300030074
:1056A00003000400040004000400040004000400DB
:1056B00005000500050005000500050006000600C0
:1056C00005000500060006000600060007000700AA
:1056D0000700070007000700070008000700080090
:1056E0000800080009000900080008000800080078
:1056F0000900090009000900080009000900090063
:1057000009000900090009002900290009002900F1
:105710000A000A000A002A002A002A002A002A0099
:105720002A002A002B002A002B004B004B004B00C4
:105730006C006C008D00CD00D001551B9523952386
:105740009523751B3413F40AD30A920A52021202EB
:10575000F101B001B001B0019001700190016F0141
:105760006F016F016F017001900190019001B00114
:10577000B101B00190019001B001B101D101F1017D
:10578000F101F101D101B001900150012F010E0191
:105790000E010E01EE00EE00CE00CE00CE00CD00D8
:1057A000AD00AD00AD00CD00CD00AD008C002B00F4
:1057B0000A000900090009000900080007000800A4
:1057C00009002A004B006B00AB00CC008B006B0083
:1057D0004A002A0029000800070007000700060009
:1057E0000500050005000500050005000500060090
:1057F0000600060006000600070007002800480013
:105800008900CB002C01AD012F0AB012322B93334B
:105810003444B54CD554B554954C744C744C5444E4
:10582000D33B322BF0228F1A2F120E0ACD018C019E
:105830008C018C016C014B012B010A01EA00C900AB
:10584000A900A900880088008800680027000500DA
:105850000300020000000000000000000000000043
:1058600000000000000002000300250045002500A4
:105870002500240024004500650886080300030075
:1058800004000400040004000400040004000500F7
:1058900005000500050005000500050005000600DF
:1058A00006000600060006000600070007000700C5
:1058B00007000700070007000800080008000800AC
:1058C0000800080008000900090028000800090075
:1058D0000900090009000900090009000900090080
:1058E0000A000A002A002A000A000A002A002A00E8
:1058F0002A002A002A002A002A002A002A002A0058
:105900002A002A002A002B002B004B004B006C00C1
:105910006C006C008D00CD00D0011413B6239423CD
:10592000F62BD523751BF412D30AB30A9202520246
:105930001102D101B001B001B001900170017001FC
:1059400070016F016F0170019001B001B001B001F1
:10595000D101D101D101D101D101F1011102120214
:10596000320232021102F101D10190016F012F01C7
:105970002F010E012F012F012F010F010E01EE004B
:10598000ED00CD00CD00CD00CD00AD00AD006C0030
:105990004B002A000A000A0009000900080008005C
:1059A0002A002A006B00AC00EC00ED00EC00CC00FB
:1059B000AB006A004A002900080008000700060042
:1059C00006000600050005000500050005000600AC
:1059D0000600060006000600060007002800480032
:1059E0008900CA000C016D010F0AB11A322B722B0B
:1059F000F33B5544B54CB554954CB554944C344494
:105A0000D333522B1123D01A901A2F12CD018C01AF
:105A10006C016C014B012B010B010B01EA00EA0048
:105A2000C900A900A900C900C900A9006800260092
:105A3000040003000100010000000000000000005D
:105A4000000000000000020024006600660046001E
:105A500026002500450066008608A608040004000C
:105A60000400040004000400040004000500050014
:105A700005000500050005000500050006000600FC
:105A800006000700070007000700070007000700DF
:105A900007000700080008000800080008000900C7
:105AA00009000900080009000900090009000900AF
:105AB000090009000900090009000900090009009E
:105AC0002A002A002A002A002A002A002A002B0085
:105AD0002B002B002B002A002A002A002A002B0072
